{
  "_format": "hh-sol-artifact-1",
  "contractName": "MiddleFingerPortal",
  "sourceName": "contracts/MiddleFingerGiver.sol",
  "abi": [
    {
      "inputs": [],
      "stateMutability": "payable",
      "type": "constructor"
    },
    {
      "anonymous": false,
      "inputs": [
        {
          "indexed": true,
          "internalType": "address",
          "name": "from",
          "type": "address"
        },
        {
          "indexed": false,
          "internalType": "uint256",
          "name": "timestamp",
          "type": "uint256"
        },
        {
          "indexed": false,
          "internalType": "string",
          "name": "message",
          "type": "string"
        }
      ],
      "name": "NewMiddleFinger",
      "type": "event"
    },
    {
      "inputs": [],
      "name": "getAllMiddleFingers",
      "outputs": [
        {
          "components": [
            {
              "internalType": "address",
              "name": "giver",
              "type": "address"
            },
            {
              "internalType": "uint256",
              "name": "timestamp",
              "type": "uint256"
            },
            {
              "internalType": "string",
              "name": "message",
              "type": "string"
            }
          ],
          "internalType": "struct MiddleFingerPortal.MiddleFinger[]",
          "name": "",
          "type": "tuple[]"
        }
      ],
      "stateMutability": "view",
      "type": "function"
    },
    {
      "inputs": [],
      "name": "getTotalMiddleFingers",
      "outputs": [
        {
          "internalType": "uint256",
          "name": "",
          "type": "uint256"
        }
      ],
      "stateMutability": "view",
      "type": "function"
    },
    {
      "inputs": [
        {
          "internalType": "string",
          "name": "_message",
          "type": "string"
        }
      ],
      "name": "giveMiddleFinger",
      "outputs": [],
      "stateMutability": "nonpayable",
      "type": "function"
    },
    {
      "inputs": [
        {
          "internalType": "address",
          "name": "",
          "type": "address"
        }
      ],
      "name": "lastTimeGaveMiddleFinger",
      "outputs": [
        {
          "internalType": "uint256",
          "name": "",
          "type": "uint256"
        }
      ],
      "stateMutability": "view",
      "type": "function"
    }
  ],
  "bytecode": "0x6080604052606444426200001491906200002c565b62000020919062000093565b60018190555062000129565b6000620000398262000089565b9150620000468362000089565b9250827fffffffffffffffffffffffffffffffffffffffffffffffffffffffffffffffff038211156200007e576200007d620000cb565b5b828201905092915050565b6000819050919050565b6000620000a08262000089565b9150620000ad8362000089565b925082620000c057620000bf620000fa565b5b828206905092915050565b7f4e487b7100000000000000000000000000000000000000000000000000000000600052601160045260246000fd5b7f4e487b7100000000000000000000000000000000000000000000000000000000600052601260045260246000fd5b610e5080620001396000396000f3fe608060405234801561001057600080fd5b506004361061004c5760003560e01c806307e9256c146100515780631db1b5361461006f5780636bc89f701461008d578063d3566f6a146100bd575b600080fd5b6100596100d9565b6040516100669190610927565b60405180910390f35b61007761022a565b60405161008491906109a9565b60405180910390f35b6100a760048036038101906100a291906106a4565b610233565b6040516100b491906109a9565b60405180910390f35b6100d760048036038101906100d291906106cd565b61024b565b005b60606002805480602002602001604051908101604052809291908181526020016000905b8282101561022157838290600052602060002090600302016040518060600160405290816000820160009054906101000a900473ffffffffffffffffffffffffffffffffffffffff1673ffffffffffffffffffffffffffffffffffffffff1673ffffffffffffffffffffffffffffffffffffffff1681526020016001820154815260200160028201805461019090610b8f565b80601f01602080910402602001604051908101604052809291908181526020018280546101bc90610b8f565b80156102095780601f106101de57610100808354040283529160200191610209565b820191906000526020600020905b8154815290600101906020018083116101ec57829003601f168201915b505050505081525050815260200190600101906100fd565b50505050905090565b60008054905090565b60036020528060005260406000206000915090505481565b42601e600360003373ffffffffffffffffffffffffffffffffffffffff1673ffffffffffffffffffffffffffffffffffffffff168152602001908152602001600020546102989190610abb565b106102d8576040517f08c379a00000000000000000000000000000000000000000000000000000000081526004016102cf90610989565b60405180910390fd5b42600360003373ffffffffffffffffffffffffffffffffffffffff1673ffffffffffffffffffffffffffffffffffffffff1681526020019081526020016000208190555060008081548092919061032e90610bf2565b9190505550600260405180606001604052803373ffffffffffffffffffffffffffffffffffffffff16815260200142815260200183815250908060018154018082558091505060019003906000526020600020906003020160009091909190915060008201518160000160006101000a81548173ffffffffffffffffffffffffffffffffffffffff021916908373ffffffffffffffffffffffffffffffffffffffff1602179055506020820151816001015560408201518160020190805190602001906103fc929190610584565b505050606460015442446104109190610abb565b61041a9190610abb565b6104249190610c3b565b600181905550603260015411610531576000655af3107a4000905047811115610482576040517f08c379a000000000000000000000000000000000000000000000000000000000815260040161047990610949565b60405180910390fd5b60003373ffffffffffffffffffffffffffffffffffffffff16826040516104a890610912565b60006040518083038185875af1925050503d80600081146104e5576040519150601f19603f3d011682016040523d82523d6000602084013e6104ea565b606091505b505090508061052e576040517f08c379a000000000000000000000000000000000000000000000000000000000815260040161052590610969565b60405180910390fd5b50505b3373ffffffffffffffffffffffffffffffffffffffff167f88391f8c6411dcf4cbd834a7500c388b75fef22675306ba5c98ec757663289c342836040516105799291906109c4565b60405180910390a250565b82805461059090610b8f565b90600052602060002090601f0160209004810192826105b257600085556105f9565b82601f106105cb57805160ff19168380011785556105f9565b828001600101855582156105f9579182015b828111156105f85782518255916020019190600101906105dd565b5b509050610606919061060a565b5090565b5b8082111561062357600081600090555060010161060b565b5090565b600061063a61063584610a19565b6109f4565b90508281526020810184848401111561065257600080fd5b61065d848285610b4d565b509392505050565b60008135905061067481610e03565b92915050565b600082601f83011261068b57600080fd5b813561069b848260208601610627565b91505092915050565b6000602082840312156106b657600080fd5b60006106c484828501610665565b91505092915050565b6000602082840312156106df57600080fd5b600082013567ffffffffffffffff8111156106f957600080fd5b6107058482850161067a565b91505092915050565b600061071a83836108a4565b905092915050565b61072b81610b11565b82525050565b600061073c82610a5a565b6107468185610a7d565b93508360208202850161075885610a4a565b8060005b858110156107945784840389528151610775858261070e565b945061078083610a70565b925060208a0199505060018101905061075c565b50829750879550505050505092915050565b60006107b182610a65565b6107bb8185610a99565b93506107cb818560208601610b5c565b6107d481610d28565b840191505092915050565b60006107ea82610a65565b6107f48185610aaa565b9350610804818560208601610b5c565b61080d81610d28565b840191505092915050565b6000610825603483610aaa565b915061083082610d39565b604082019050919050565b6000610848602783610aaa565b915061085382610d88565b604082019050919050565b600061086b600083610a8e565b915061087682610dd7565b600082019050919050565b600061088e600883610aaa565b915061089982610dda565b602082019050919050565b60006060830160008301516108bc6000860182610722565b5060208301516108cf60208601826108f4565b50604083015184820360408601526108e782826107a6565b9150508091505092915050565b6108fd81610b43565b82525050565b61090c81610b43565b82525050565b600061091d8261085e565b9150819050919050565b600060208201905081810360008301526109418184610731565b905092915050565b6000602082019050818103600083015261096281610818565b9050919050565b600060208201905081810360008301526109828161083b565b9050919050565b600060208201905081810360008301526109a281610881565b9050919050565b60006020820190506109be6000830184610903565b92915050565b60006040820190506109d96000830185610903565b81810360208301526109eb81846107df565b90509392505050565b60006109fe610a0f565b9050610a0a8282610bc1565b919050565b6000604051905090565b600067ffffffffffffffff821115610a3457610a33610cf9565b5b610a3d82610d28565b9050602081019050919050565b6000819050602082019050919050565b600081519050919050565b600081519050919050565b6000602082019050919050565b600082825260208201905092915050565b600081905092915050565b600082825260208201905092915050565b600082825260208201905092915050565b6000610ac682610b43565b9150610ad183610b43565b9250827fffffffffffffffffffffffffffffffffffffffffffffffffffffffffffffffff03821115610b0657610b05610c6c565b5b828201905092915050565b6000610b1c82610b23565b9050919050565b600073ffffffffffffffffffffffffffffffffffffffff82169050919050565b6000819050919050565b82818337600083830152505050565b60005b83811015610b7a578082015181840152602081019050610b5f565b83811115610b89576000848401525b50505050565b60006002820490506001821680610ba757607f821691505b60208210811415610bbb57610bba610cca565b5b50919050565b610bca82610d28565b810181811067ffffffffffffffff82111715610be957610be8610cf9565b5b80604052505050565b6000610bfd82610b43565b91507fffffffffffffffffffffffffffffffffffffffffffffffffffffffffffffffff821415610c3057610c2f610c6c565b5b600182019050919050565b6000610c4682610b43565b9150610c5183610b43565b925082610c6157610c60610c9b565b5b828206905092915050565b7f4e487b7100000000000000000000000000000000000000000000000000000000600052601160045260246000fd5b7f4e487b7100000000000000000000000000000000000000000000000000000000600052601260045260246000fd5b7f4e487b7100000000000000000000000000000000000000000000000000000000600052602260045260246000fd5b7f4e487b7100000000000000000000000000000000000000000000000000000000600052604160045260246000fd5b6000601f19601f8301169050919050565b7f547279696e6720746f207769746864726177206d6f7265206d6f6e657920746860008201527f616e2074686520636f6e7472616374206861732e000000000000000000000000602082015250565b7f4661696c656420746f207769746864726177206d6f6e65792066726f6d20636f60008201527f6e74726163742e00000000000000000000000000000000000000000000000000602082015250565b50565b7f576169742031356d000000000000000000000000000000000000000000000000600082015250565b610e0c81610b11565b8114610e1757600080fd5b5056fea2646970667358221220600b4f11efa7b04350809553a777b03bbb477dcf58fc7a8211899e0fe596c02764736f6c63430008040033",
  "linkReferences": {},
  "deployedLinkReferences": {}
}